{
  "_format": "hh-sol-artifact-1",
  "contractName": "NFTMarket",
  "sourceName": "contracts/Market.sol",
  "abi": [
    {
      "inputs": [],
      "stateMutability": "nonpayable",
      "type": "constructor"
    },
    {
      "inputs": [],
      "name": "AlreadySold",
      "type": "error"
    },
    {
      "inputs": [],
      "name": "IncorrectPayment",
      "type": "error"
    },
    {
      "inputs": [],
      "name": "ItemNotFound",
      "type": "error"
    },
    {
      "inputs": [],
      "name": "PriceMustBePositive",
      "type": "error"
    },
    {
      "anonymous": false,
      "inputs": [
        {
          "indexed": true,
          "internalType": "uint256",
          "name": "itemId",
          "type": "uint256"
        },
        {
          "indexed": true,
          "internalType": "address",
          "name": "nftContract",
          "type": "address"
        },
        {
          "indexed": true,
          "internalType": "uint256",
          "name": "tokenId",
          "type": "uint256"
        },
        {
          "indexed": false,
          "internalType": "address",
          "name": "seller",
          "type": "address"
        },
        {
          "indexed": false,
          "internalType": "uint256",
          "name": "price",
          "type": "uint256"
        },
        {
          "indexed": false,
          "internalType": "string",
          "name": "tokenURI",
          "type": "string"
        }
      ],
      "name": "MarketItemListed",
      "type": "event"
    },
    {
      "anonymous": false,
      "inputs": [
        {
          "indexed": true,
          "internalType": "uint256",
          "name": "itemId",
          "type": "uint256"
        },
        {
          "indexed": true,
          "internalType": "address",
          "name": "nftContract",
          "type": "address"
        },
        {
          "indexed": true,
          "internalType": "uint256",
          "name": "tokenId",
          "type": "uint256"
        },
        {
          "indexed": false,
          "internalType": "address",
          "name": "seller",
          "type": "address"
        },
        {
          "indexed": false,
          "internalType": "address",
          "name": "buyer",
          "type": "address"
        },
        {
          "indexed": false,
          "internalType": "uint256",
          "name": "price",
          "type": "uint256"
        }
      ],
      "name": "MarketItemSold",
      "type": "event"
    },
    {
      "inputs": [
        {
          "internalType": "address",
          "name": "nftContract",
          "type": "address"
        },
        {
          "internalType": "uint256",
          "name": "tokenId",
          "type": "uint256"
        },
        {
          "internalType": "uint256",
          "name": "price",
          "type": "uint256"
        }
      ],
      "name": "createMarketItem",
      "outputs": [],
      "stateMutability": "nonpayable",
      "type": "function"
    },
    {
      "inputs": [
        {
          "internalType": "address",
          "name": "nftContract",
          "type": "address"
        },
        {
          "internalType": "uint256",
          "name": "itemId",
          "type": "uint256"
        }
      ],
      "name": "createMarketSale",
      "outputs": [],
      "stateMutability": "payable",
      "type": "function"
    },
    {
      "inputs": [],
      "name": "fetchMarketItems",
      "outputs": [
        {
          "components": [
            {
              "internalType": "uint256",
              "name": "itemId",
              "type": "uint256"
            },
            {
              "internalType": "address",
              "name": "nftContract",
              "type": "address"
            },
            {
              "internalType": "uint256",
              "name": "tokenId",
              "type": "uint256"
            },
            {
              "internalType": "address payable",
              "name": "seller",
              "type": "address"
            },
            {
              "internalType": "address payable",
              "name": "owner",
              "type": "address"
            },
            {
              "internalType": "uint256",
              "name": "price",
              "type": "uint256"
            },
            {
              "internalType": "bool",
              "name": "sold",
              "type": "bool"
            },
            {
              "internalType": "string",
              "name": "tokenURI",
              "type": "string"
            }
          ],
          "internalType": "struct NFTMarket.MarketItem[]",
          "name": "",
          "type": "tuple[]"
        }
      ],
      "stateMutability": "view",
      "type": "function"
    }
  ],
  "bytecode": "0x6080604052348015600f57600080fd5b50600160008190555061166c806100276000396000f3fe6080604052600436106100345760003560e01c80630f08efe01461003957806358eb2df514610064578063c23b139e1461008d575b600080fd5b34801561004557600080fd5b5061004e6100a9565b60405161005b9190610dca565b60405180910390f35b34801561007057600080fd5b5061008b60048036038101906100869190610e58565b6103e4565b005b6100a760048036038101906100a29190610eab565b610742565b005b606060006100b76001610a2c565b905060006100c56002610a2c565b6100cf6001610a2c565b6100d99190610f1a565b90506000808267ffffffffffffffff8111156100f8576100f7610f4e565b5b60405190808252806020026020018201604052801561013157816020015b61011e610aa9565b8152602001906001900390816101165790505b5090506000600190505b8481116103d957600073ffffffffffffffffffffffffffffffffffffffff166003600083815260200190815260200160002060040160009054906101000a900473ffffffffffffffffffffffffffffffffffffffff1673ffffffffffffffffffffffffffffffffffffffff16036103c6576003600082815260200190815260200160002060405180610100016040529081600082015481526020016001820160009054906101000a900473ffffffffffffffffffffffffffffffffffffffff1673ffffffffffffffffffffffffffffffffffffffff1673ffffffffffffffffffffffffffffffffffffffff168152602001600282015481526020016003820160009054906101000a900473ffffffffffffffffffffffffffffffffffffffff1673ffffffffffffffffffffffffffffffffffffffff1673ffffffffffffffffffffffffffffffffffffffff1681526020016004820160009054906101000a900473ffffffffffffffffffffffffffffffffffffffff1673ffffffffffffffffffffffffffffffffffffffff1673ffffffffffffffffffffffffffffffffffffffff168152602001600582015481526020016006820160009054906101000a900460ff1615151515815260200160078201805461031690610fac565b80601f016020809104026020016040519081016040528092919081815260200182805461034290610fac565b801561038f5780601f106103645761010080835404028352916020019161038f565b820191906000526020600020905b81548152906001019060200180831161037257829003601f168201915b5050505050815250508284815181106103ab576103aa610fdd565b5b60200260200101819052506001836103c3919061100c565b92505b80806103d190611040565b91505061013b565b508094505050505090565b6000810361041e576040517f1d25a35500000000000000000000000000000000000000000000000000000000815260040160405180910390fd5b6104286001610a3a565b60006104346001610a2c565b905060008473ffffffffffffffffffffffffffffffffffffffff1663c87b56dd856040518263ffffffff1660e01b81526004016104719190611097565b600060405180830381865afa15801561048e573d6000803e3d6000fd5b505050506040513d6000823e3d601f19601f820116820180604052508101906104b791906111a9565b90506040518061010001604052808381526020018673ffffffffffffffffffffffffffffffffffffffff1681526020018581526020013373ffffffffffffffffffffffffffffffffffffffff168152602001600073ffffffffffffffffffffffffffffffffffffffff16815260200184815260200160001515815260200182815250600360008481526020019081526020016000206000820151816000015560208201518160010160006101000a81548173ffffffffffffffffffffffffffffffffffffffff021916908373ffffffffffffffffffffffffffffffffffffffff1602179055506040820151816002015560608201518160030160006101000a81548173ffffffffffffffffffffffffffffffffffffffff021916908373ffffffffffffffffffffffffffffffffffffffff16021790555060808201518160040160006101000a81548173ffffffffffffffffffffffffffffffffffffffff021916908373ffffffffffffffffffffffffffffffffffffffff16021790555060a0820151816005015560c08201518160060160006101000a81548160ff02191690831515021790555060e0820151816007019081610674919061139e565b509050508473ffffffffffffffffffffffffffffffffffffffff166323b872dd3330876040518463ffffffff1660e01b81526004016106b59392919061147f565b600060405180830381600087803b1580156106cf57600080fd5b505af11580156106e3573d6000803e3d6000fd5b50505050838573ffffffffffffffffffffffffffffffffffffffff16837f2487017f4978886c5bbb0ba102194acdf3ed7785f3371b306efb5784793dced533878660405161073393929190611500565b60405180910390a45050505050565b61074a610a50565b6000600360008381526020019081526020016000209050600073ffffffffffffffffffffffffffffffffffffffff168160030160009054906101000a900473ffffffffffffffffffffffffffffffffffffffff1673ffffffffffffffffffffffffffffffffffffffff16036107eb576040517fd3ed043d00000000000000000000000000000000000000000000000000000000815260040160405180910390fd5b8060060160009054906101000a900460ff1615610834576040517fda17dbf800000000000000000000000000000000000000000000000000000000815260040160405180910390fd5b60008160050154905060008260020154905060008360030160009054906101000a900473ffffffffffffffffffffffffffffffffffffffff1690508234146108a8576040517f569e8c1100000000000000000000000000000000000000000000000000000000815260040160405180910390fd5b8073ffffffffffffffffffffffffffffffffffffffff166108fc349081150290604051600060405180830381858888f193505050501580156108ee573d6000803e3d6000fd5b508573ffffffffffffffffffffffffffffffffffffffff166323b872dd3033856040518463ffffffff1660e01b815260040161092c9392919061147f565b600060405180830381600087803b15801561094657600080fd5b505af115801561095a573d6000803e3d6000fd5b50505050338460040160006101000a81548173ffffffffffffffffffffffffffffffffffffffff021916908373ffffffffffffffffffffffffffffffffffffffff16021790555060018460060160006101000a81548160ff0219169083151502179055506109c86002610a3a565b818673ffffffffffffffffffffffffffffffffffffffff16867f6a5f9d2b6ff1f375ebe095556dc91e68fce80a6187d7527cce81c3ab02726c9c843388604051610a1493929190611593565b60405180910390a450505050610a28610a9f565b5050565b600081600001549050919050565b6001816000016000828254019250508190555050565b600260005403610a95576040517f08c379a0000000000000000000000000000000000000000000000000000000008152600401610a8c90611616565b60405180910390fd5b6002600081905550565b6001600081905550565b60405180610100016040528060008152602001600073ffffffffffffffffffffffffffffffffffffffff16815260200160008152602001600073ffffffffffffffffffffffffffffffffffffffff168152602001600073ffffffffffffffffffffffffffffffffffffffff16815260200160008152602001600015158152602001606081525090565b600081519050919050565b600082825260208201905092915050565b6000819050602082019050919050565b6000819050919050565b610b7181610b5e565b82525050565b600073ffffffffffffffffffffffffffffffffffffffff82169050919050565b6000610ba282610b77565b9050919050565b610bb281610b97565b82525050565b6000610bc382610b77565b9050919050565b610bd381610bb8565b82525050565b60008115159050919050565b610bee81610bd9565b82525050565b600081519050919050565b600082825260208201905092915050565b60005b83811015610c2e578082015181840152602081019050610c13565b60008484015250505050565b6000601f19601f8301169050919050565b6000610c5682610bf4565b610c608185610bff565b9350610c70818560208601610c10565b610c7981610c3a565b840191505092915050565b600061010083016000830151610c9d6000860182610b68565b506020830151610cb06020860182610ba9565b506040830151610cc36040860182610b68565b506060830151610cd66060860182610bca565b506080830151610ce96080860182610bca565b5060a0830151610cfc60a0860182610b68565b5060c0830151610d0f60c0860182610be5565b5060e083015184820360e0860152610d278282610c4b565b9150508091505092915050565b6000610d408383610c84565b905092915050565b6000602082019050919050565b6000610d6082610b32565b610d6a8185610b3d565b935083602082028501610d7c85610b4e565b8060005b85811015610db85784840389528151610d998582610d34565b9450610da483610d48565b925060208a01995050600181019050610d80565b50829750879550505050505092915050565b60006020820190508181036000830152610de48184610d55565b905092915050565b6000604051905090565b600080fd5b600080fd5b610e0981610b97565b8114610e1457600080fd5b50565b600081359050610e2681610e00565b92915050565b610e3581610b5e565b8114610e4057600080fd5b50565b600081359050610e5281610e2c565b92915050565b600080600060608486031215610e7157610e70610df6565b5b6000610e7f86828701610e17565b9350506020610e9086828701610e43565b9250506040610ea186828701610e43565b9150509250925092565b60008060408385031215610ec257610ec1610df6565b5b6000610ed085828601610e17565b9250506020610ee185828601610e43565b9150509250929050565b7f4e487b7100000000000000000000000000000000000000000000000000000000600052601160045260246000fd5b6000610f2582610b5e565b9150610f3083610b5e565b9250828203905081811115610f4857610f47610eeb565b5b92915050565b7f4e487b7100000000000000000000000000000000000000000000000000000000600052604160045260246000fd5b7f4e487b7100000000000000000000000000000000000000000000000000000000600052602260045260246000fd5b60006002820490506001821680610fc457607f821691505b602082108103610fd757610fd6610f7d565b5b50919050565b7f4e487b7100000000000000000000000000000000000000000000000000000000600052603260045260246000fd5b600061101782610b5e565b915061102283610b5e565b925082820190508082111561103a57611039610eeb565b5b92915050565b600061104b82610b5e565b91507fffffffffffffffffffffffffffffffffffffffffffffffffffffffffffffffff820361107d5761107c610eeb565b5b600182019050919050565b61109181610b5e565b82525050565b60006020820190506110ac6000830184611088565b92915050565b600080fd5b600080fd5b6110c582610c3a565b810181811067ffffffffffffffff821117156110e4576110e3610f4e565b5b80604052505050565b60006110f7610dec565b905061110382826110bc565b919050565b600067ffffffffffffffff82111561112357611122610f4e565b5b61112c82610c3a565b9050602081019050919050565b600061114c61114784611108565b6110ed565b905082815260208101848484011115611168576111676110b7565b5b611173848285610c10565b509392505050565b600082601f8301126111905761118f6110b2565b5b81516111a0848260208601611139565b91505092915050565b6000602082840312156111bf576111be610df6565b5b600082015167ffffffffffffffff8111156111dd576111dc610dfb565b5b6111e98482850161117b565b91505092915050565b60008190508160005260206000209050919050565b60006020601f8301049050919050565b600082821b905092915050565b6000600883026112547fffffffffffffffffffffffffffffffffffffffffffffffffffffffffffffffff82611217565b61125e8683611217565b95508019841693508086168417925050509392505050565b6000819050919050565b600061129b61129661129184610b5e565b611276565b610b5e565b9050919050565b6000819050919050565b6112b583611280565b6112c96112c1826112a2565b848454611224565b825550505050565b600090565b6112de6112d1565b6112e98184846112ac565b505050565b5b8181101561130d576113026000826112d6565b6001810190506112ef565b5050565b601f82111561135257611323816111f2565b61132c84611207565b8101602085101561133b578190505b61134f61134785611207565b8301826112ee565b50505b505050565b600082821c905092915050565b600061137560001984600802611357565b1980831691505092915050565b600061138e8383611364565b9150826002028217905092915050565b6113a782610bf4565b67ffffffffffffffff8111156113c0576113bf610f4e565b5b6113ca8254610fac565b6113d5828285611311565b600060209050601f83116001811461140857600084156113f6578287015190505b6114008582611382565b865550611468565b601f198416611416866111f2565b60005b8281101561143e57848901518255600182019150602085019450602081019050611419565b8683101561145b5784890151611457601f891682611364565b8355505b6001600288020188555050505b505050505050565b61147981610b97565b82525050565b60006060820190506114946000830186611470565b6114a16020830185611470565b6114ae6040830184611088565b949350505050565b600082825260208201905092915050565b60006114d282610bf4565b6114dc81856114b6565b93506114ec818560208601610c10565b6114f581610c3a565b840191505092915050565b60006060820190506115156000830186611470565b6115226020830185611088565b818103604083015261153481846114c7565b9050949350505050565b600061155961155461154f84610b77565b611276565b610b77565b9050919050565b600061156b8261153e565b9050919050565b600061157d82611560565b9050919050565b61158d81611572565b82525050565b60006060820190506115a86000830186611584565b6115b56020830185611470565b6115c26040830184611088565b949350505050565b7f5265656e7472616e637947756172643a207265656e7472616e742063616c6c00600082015250565b6000611600601f836114b6565b915061160b826115ca565b602082019050919050565b6000602082019050818103600083015261162f816115f3565b905091905056fea2646970667358221220e6ff28c295128a29ef00ba1b74f7908e25683f23ed075d1f6499e2d534ac8b2464736f6c634300081c0033",
  "linkReferences": {},
  "deployedLinkReferences": {}
}